{
  "txid": "2afd360437783070a3e727a4c207333ec048ec37933ff3a82e64c7c770e441d9",
  "hash": "fdea9b91202bc846f1122264a16bffa93ea54c98e4c072c93e271f92995b2b56",
  "version": 2,
  "size": 1108,
  "vsize": 622,
  "weight": 2488,
  "locktime": 626854,
  "vin": [
    {
      "txid": "29037e6373c08858378a931f4ee40dadf288a66c7528eb61d265958250821401",
      "vout": 1,
      "scriptSig": {
        "asm": "0014fcbbf5b02b96a67baeaed086fe8c1b28a9d0ac4a",
        "hex": "160014fcbbf5b02b96a67baeaed086fe8c1b28a9d0ac4a"
      },
      "txinwitness": [
        "3045022100cdd82015fc2bce2f33a83fb97343db2e25e04e50395c5485e72bf5ae215ab6ec02202a5dc495805da2263adf17309b627690c53a6f16a72c98480ae0ce9b269963ea01",
        "03a373d7fe768165471c5c9fb0dd8195b19d22e45812e402ccc7bb8a29b2fd3173"
      ],
      "sequence": 4294967294
    },
    {
      "txid": "aa3e9a727656d268407ebb5173da9294281b66584013758e67823ba0eb3d8174",
      "vout": 4,
      "scriptSig": {
        "asm": "0014acbcaeb4ad7dd26317a40cfab23573c5bb54e2f3",
        "hex": "160014acbcaeb4ad7dd26317a40cfab23573c5bb54e2f3"
      },
      "txinwitness": [
        "30450221008d2c730f99443bbed346dcfcbccdddb38cad9a0fb310aa95a5b700c48aa87e9e022064bd0b638b610f93424649c8776664f9774bef1724afad5194443bd5aadda24d01",
        "031ed8d44e58ed403d2a2208d0a6f8e5066d52807348a3e58a1fb48f77ac5c0227"
      ],
      "sequence": 4294967294
    },
    {
      "txid": "badb176070944191716995c3157509439fcf6494efc349c89db43e73d1caa899",
      "vout": 5,
      "scriptSig": {
        "asm": "00146ed7489529015855b1bdc77989ff2f5becb325ae",
        "hex": "1600146ed7489529015855b1bdc77989ff2f5becb325ae"
      },
      "txinwitness": [
        "30450221009b23d74a39d4756dc2223d850597000ae1c39375ec1b520290b009dccd0028ef022051289b523cbb9d419224e6a1fcb396599a64f4670fdc19bd2b4dce05a7bb797901",
        "0220170b96d041bd40309204a9bf85b886086dcc50db88c7fb2e86bd548c88d016"
      ],
      "sequence": 4294967294
    },
    {
      "txid": "bc605aa294b039b6599ab37ac56aca296c003cb3085dca6e0ab4b7b43968a2a1",
      "vout": 1,
      "scriptSig": {
        "asm": "0014e2d57778c04e147acfba6d7a298a192ac6b34811",
        "hex": "160014e2d57778c04e147acfba6d7a298a192ac6b34811"
      },
      "txinwitness": [
        "3045022100da2b4146eb9dbb30cf5896734aaa955d15b4e8b87fdd9bc00bdc64592e8a92dd02200df851bf52c93a7b521380d0946a0aded4deb9e62e4a36e1039b1e7c4984310101",
        "035feee157e797363b2e81ba8e9d398098fea932ccd39b8b51a49aecdfd0abe6d0"
      ],
      "sequence": 4294967294
    },
    {
      "txid": "ebee6636ea02139034919e776f4c6f64a0346cfa835bca7e3bc5b5d4e66c09bc",
      "vout": 1,
      "scriptSig": {
        "asm": "0014285e2370780c89aea4db14230c68f2ac6baf248d",
        "hex": "160014285e2370780c89aea4db14230c68f2ac6baf248d"
      },
      "txinwitness": [
        "3044022017a73cc9892039b851634197ade1851876c4f827b2a70e9b73abae608af1d46f02206e9b44b9c4fa4d6fbf08ac01c49a47e02c94975603a4fd92d0f8bcc04103811201",
        "03b5cbdd776e1e5ab3927226e94483e13486a86e53c0edbfe57e178878db34fec9"
      ],
      "sequence": 4294967294
    },
    {
      "txid": "29dbc060633c755cf4c4a14d61bd3a74b0d3368f6d8385daf55b45957d8c7bd6",
      "vout": 10,
      "scriptSig": {
        "asm": "001416cf8b7af15222c5650267960953e2e2814f7bdc",
        "hex": "16001416cf8b7af15222c5650267960953e2e2814f7bdc"
      },
      "txinwitness": [
        "30440220610242e82324090d0793fc6a38253acdca7b90d0052c63a7ad08b6c3efa2d5f5022010176832ff933b112714401d9b7aedfa3dee6c7813e9dfe4da411f823a2b8ff601",
        "02ad9c9790e52b696f700b0c52bb994e1c0a94350bf979a411b3b4ea983f646e74"
      ],
      "sequence": 4294967294
    }
  ],
  "vout": [
    {
      "value": 0.13015195,
      "n": 0,
      "scriptPubKey": {
        "asm": "OP_DUP OP_HASH160 e6a48f91e4ffa1f9a198f9f6b613cfb093a1930b OP_EQUALVERIFY OP_CHECKSIG",
        "hex": "76a914e6a48f91e4ffa1f9a198f9f6b613cfb093a1930b88ac",
        "reqSigs": 1,
        "type": "pubkeyhash",
        "addresses": [
          "1N2XZ1RGbjHTXqJCooygHLjqnd7Lx2zeUW"
        ]
      }
    },
    {
      "value": 0.00923066,
      "n": 1,
      "scriptPubKey": {
        "asm": "OP_HASH160 535efe0527477f49320c069c54f82c2a7bd1c837 OP_EQUAL",
        "hex": "a914535efe0527477f49320c069c54f82c2a7bd1c83787",
        "reqSigs": 1,
        "type": "scripthash",
        "addresses": [
          "39HqoeJoKT6BmVX5CHYKSrQZMZJMaw4YpG"
        ]
      }
    }
  ],
  "hex": "0200000000010601148250829565d261eb28756ca688f2ad0de44e1f938a375888c073637e03290100000017160014fcbbf5b02b96a67baeaed086fe8c1b28a9d0ac4afeffffff74813deba03b82678e75134058661b289492da7351bb7e4068d25676729a3eaa0400000017160014acbcaeb4ad7dd26317a40cfab23573c5bb54e2f3feffffff99a8cad1733eb49dc849c3ef9464cf9f43097515c3956971914194706017dbba05000000171600146ed7489529015855b1bdc77989ff2f5becb325aefeffffffa1a26839b4b7b40a6eca5d08b33c006c29ca6ac57ab39a59b639b094a25a60bc0100000017160014e2d57778c04e147acfba6d7a298a192ac6b34811feffffffbc096ce6d4b5c53b7eca5b83fa6c34a0646f4c6f779e9134901302ea3666eeeb0100000017160014285e2370780c89aea4db14230c68f2ac6baf248dfeffffffd67b8c7d95455bf5da85836d8f36d3b0743abd614da1c4f45c753c6360c0db290a0000001716001416cf8b7af15222c5650267960953e2e2814f7bdcfeffffff029b98c600000000001976a914e6a48f91e4ffa1f9a198f9f6b613cfb093a1930b88acba150e000000000017a914535efe0527477f49320c069c54f82c2a7bd1c8378702483045022100cdd82015fc2bce2f33a83fb97343db2e25e04e50395c5485e72bf5ae215ab6ec02202a5dc495805da2263adf17309b627690c53a6f16a72c98480ae0ce9b269963ea012103a373d7fe768165471c5c9fb0dd8195b19d22e45812e402ccc7bb8a29b2fd3173024830450221008d2c730f99443bbed346dcfcbccdddb38cad9a0fb310aa95a5b700c48aa87e9e022064bd0b638b610f93424649c8776664f9774bef1724afad5194443bd5aadda24d0121031ed8d44e58ed403d2a2208d0a6f8e5066d52807348a3e58a1fb48f77ac5c0227024830450221009b23d74a39d4756dc2223d850597000ae1c39375ec1b520290b009dccd0028ef022051289b523cbb9d419224e6a1fcb396599a64f4670fdc19bd2b4dce05a7bb797901210220170b96d041bd40309204a9bf85b886086dcc50db88c7fb2e86bd548c88d01602483045022100da2b4146eb9dbb30cf5896734aaa955d15b4e8b87fdd9bc00bdc64592e8a92dd02200df851bf52c93a7b521380d0946a0aded4deb9e62e4a36e1039b1e7c498431010121035feee157e797363b2e81ba8e9d398098fea932ccd39b8b51a49aecdfd0abe6d002473044022017a73cc9892039b851634197ade1851876c4f827b2a70e9b73abae608af1d46f02206e9b44b9c4fa4d6fbf08ac01c49a47e02c94975603a4fd92d0f8bcc041038112012103b5cbdd776e1e5ab3927226e94483e13486a86e53c0edbfe57e178878db34fec9024730440220610242e82324090d0793fc6a38253acdca7b90d0052c63a7ad08b6c3efa2d5f5022010176832ff933b112714401d9b7aedfa3dee6c7813e9dfe4da411f823a2b8ff6012102ad9c9790e52b696f700b0c52bb994e1c0a94350bf979a411b3b4ea983f646e74a6900900",
  "blockhash": "0000000000000000000539d03dc0e9f4f7adf30056329306073b3fa7def75e60",
  "confirmations": 332,
  "time": 1587383986,
  "blocktime": 1587383986
}
